{
  "contractName": "FactorySBA",
  "abi": [
    {
      "constant": true,
      "inputs": [],
      "name": "created",
      "outputs": [
        {
          "name": "",
          "type": "address"
        }
      ],
      "payable": false,
      "stateMutability": "view",
      "type": "function"
    },
    {
      "constant": true,
      "inputs": [
        {
          "name": "",
          "type": "uint256"
        }
      ],
      "name": "accounts",
      "outputs": [
        {
          "name": "",
          "type": "address"
        }
      ],
      "payable": false,
      "stateMutability": "view",
      "type": "function"
    },
    {
      "anonymous": false,
      "inputs": [
        {
          "indexed": true,
          "name": "contractAddress",
          "type": "address"
        }
      ],
      "name": "EmitContract",
      "type": "event"
    },
    {
      "constant": false,
      "inputs": [
        {
          "name": "_user",
          "type": "address"
        },
        {
          "name": "firstName",
          "type": "string"
        },
        {
          "name": "lastName",
          "type": "string"
        },
        {
          "name": "email",
          "type": "string"
        }
      ],
      "name": "createAccount",
      "outputs": [],
      "payable": false,
      "stateMutability": "nonpayable",
      "type": "function"
    },
    {
      "constant": true,
      "inputs": [],
      "name": "getAccount",
      "outputs": [
        {
          "name": "",
          "type": "address"
        }
      ],
      "payable": false,
      "stateMutability": "view",
      "type": "function"
    }
  ],
  "bytecode": "0x6060604052341561000f57600080fd5b6120b78061001e6000396000f30060606040526000357c0100000000000000000000000000000000000000000000000000000000900463ffffffff168063325a19f11461005e578063db613e81146100b3578063dee94b4a14610108578063f2a40db81461020a57600080fd5b341561006957600080fd5b61007161026d565b604051808273ffffffffffffffffffffffffffffffffffffffff1673ffffffffffffffffffffffffffffffffffffffff16815260200191505060405180910390f35b34156100be57600080fd5b6100c6610293565b604051808273ffffffffffffffffffffffffffffffffffffffff1673ffffffffffffffffffffffffffffffffffffffff16815260200191505060405180910390f35b341561011357600080fd5b610208600480803573ffffffffffffffffffffffffffffffffffffffff1690602001909190803590602001908201803590602001908080601f0160208091040260200160405190810160405280939291908181526020018383808284378201915050505050509190803590602001908201803590602001908080601f0160208091040260200160405190810160405280939291908181526020018383808284378201915050505050509190803590602001908201803590602001908080601f016020809104026020016040519081016040528093929190818152602001838380828437820191505050505050919050506102bd565b005b341561021557600080fd5b61022b6004808035906020019091905050610508565b604051808273ffffffffffffffffffffffffffffffffffffffff1673ffffffffffffffffffffffffffffffffffffffff16815260200191505060405180910390f35b600160009054906101000a900473ffffffffffffffffffffffffffffffffffffffff1681565b6000600160009054906101000a900473ffffffffffffffffffffffffffffffffffffffff16905090565b6000848484846102cb610547565b808573ffffffffffffffffffffffffffffffffffffffff1673ffffffffffffffffffffffffffffffffffffffff168152602001806020018060200180602001848103845287818151815260200191508051906020019080838360005b83811015610342578082015181840152602081019050610327565b50505050905090810190601f16801561036f5780820380516001836020036101000a031916815260200191505b50848103835286818151815260200191508051906020019080838360005b838110156103a857808201518184015260208101905061038d565b50505050905090810190601f1680156103d55780820380516001836020036101000a031916815260200191505b50848103825285818151815260200191508051906020019080838360005b8381101561040e5780820151818401526020810190506103f3565b50505050905090810190601f16801561043b5780820380516001836020036101000a031916815260200191505b50975050505050505050604051809103906000f080151561045b57600080fd5b9050600080548060010182816104719190610557565b9160005260206000209001600083909190916101000a81548173ffffffffffffffffffffffffffffffffffffffff021916908373ffffffffffffffffffffffffffffffffffffffff1602179055505080600160006101000a81548173ffffffffffffffffffffffffffffffffffffffff021916908373ffffffffffffffffffffffffffffffffffffffff1602179055505050505050565b60008181548110151561051757fe5b90600052602060002090016000915054906101000a900473ffffffffffffffffffffffffffffffffffffffff1681565b604051611ae3806105a983390190565b81548183558181151161057e5781836000526020600020918201910161057d9190610583565b5b505050565b6105a591905b808211156105a1576000816000905550600101610589565b5090565b905600606060405234156200001057600080fd5b60405162001ae338038062001ae3833981016040528080519060200190919080518201919060200180518201919060200180518201919050506200005362000193565b336000806101000a81548173ffffffffffffffffffffffffffffffffffffffff021916908373ffffffffffffffffffffffffffffffffffffffff1602179055506080604051908101604052808581526020018481526020018381526020018673ffffffffffffffffffffffffffffffffffffffff16815250905080600260008081526020019081526020016000206000820151816000019080519060200190620000ff929190620001ea565b5060208201518160010190805190602001906200011e929190620001ea565b5060408201518160020190805190602001906200013d929190620001ea565b5060608201518160030160006101000a81548173ffffffffffffffffffffffffffffffffffffffff021916908373ffffffffffffffffffffffffffffffffffffffff1602179055509050505050505050620002ad565b608060405190810160405280620001a962000271565b8152602001620001b862000271565b8152602001620001c762000271565b8152602001600073ffffffffffffffffffffffffffffffffffffffff1681525090565b828054600181600116156101000203166002900490600052602060002090601f016020900481019282601f106200022d57805160ff19168380011785556200025e565b828001600101855582156200025e579182015b828111156200025d57825182559160200191906001019062000240565b5b5090506200026d919062000285565b5090565b602060405190810160405280600081525090565b620002aa91905b80821115620002a65760008160009055506001016200028c565b5090565b90565b61182680620002bd6000396000f300606060405236156100a2576000357c0100000000000000000000000000000000000000000000000000000000900463ffffffff1680632b33d71b146100a75780632e7700f0146100de57806339c70dd6146101075780634edc2b111461017d5780635742177c1461018757806365209e3d1461022b5780637bae08ba1461026d578063832880e7146102d7578063e78a27ca14610470578063ee4ae2c914610499575b600080fd5b6100dc600480803590602001909190803573ffffffffffffffffffffffffffffffffffffffff169060200190919050506104d0565b005b34156100e957600080fd5b6100f1610723565b6040518082815260200191505060405180910390f35b341561011257600080fd5b61017b600480803561ffff1690602001909190803590602001908201803590602001908080601f0160208091040260200160405190810160405280939291908181526020018383808284378201915050505050509190803560ff1690602001909190505061073e565b005b61018561092e565b005b341561019257600080fd5b6101a86004808035906020019091905050610acf565b604051808573ffffffffffffffffffffffffffffffffffffffff1673ffffffffffffffffffffffffffffffffffffffff1681526020018473ffffffffffffffffffffffffffffffffffffffff1673ffffffffffffffffffffffffffffffffffffffff16815260200183815260200182815260200194505050505060405180910390f35b341561023657600080fd5b61026b600480803573ffffffffffffffffffffffffffffffffffffffff16906020019091908035906020019091905050610b96565b005b341561027857600080fd5b610280610ce9565b6040518080602001828103825283818151815260200191508051906020019060200280838360005b838110156102c35780820151818401526020810190506102a8565b505050509050019250505060405180910390f35b34156102e257600080fd5b6102ea610d7d565b604051808060200180602001806020018573ffffffffffffffffffffffffffffffffffffffff1673ffffffffffffffffffffffffffffffffffffffff168152602001848103845288818151815260200191508051906020019080838360005b83811015610364578082015181840152602081019050610349565b50505050905090810190601f1680156103915780820380516001836020036101000a031916815260200191505b50848103835287818151815260200191508051906020019080838360005b838110156103ca5780820151818401526020810190506103af565b50505050905090810190601f1680156103f75780820380516001836020036101000a031916815260200191505b50848103825286818151815260200191508051906020019080838360005b83811015610430578082015181840152602081019050610415565b50505050905090810190601f16801561045d5780820380516001836020036101000a031916815260200191505b5097505050505050505060405180910390f35b341561047b57600080fd5b610483610ff2565b6040518082815260200191505060405180910390f35b6104ce600480803573ffffffffffffffffffffffffffffffffffffffff16906020019091908035906020019091905050611011565b005b6104d8611208565b6002600080815260200190815260200160002060030160009054906101000a900473ffffffffffffffffffffffffffffffffffffffff1673ffffffffffffffffffffffffffffffffffffffff163373ffffffffffffffffffffffffffffffffffffffff1614151561054857600080fd5b6080604051908101604052803373ffffffffffffffffffffffffffffffffffffffff168152602001600073ffffffffffffffffffffffffffffffffffffffff16815260200142815260200184815250905080600160006105a6610723565b815260200190815260200160002060008201518160000160006101000a81548173ffffffffffffffffffffffffffffffffffffffff021916908373ffffffffffffffffffffffffffffffffffffffff16021790555060208201518160010160006101000a81548173ffffffffffffffffffffffffffffffffffffffff021916908373ffffffffffffffffffffffffffffffffffffffff16021790555060408201518160020155606082015181600301559050506000601481819054906101000a900461ffff168092919060010191906101000a81548161ffff021916908361ffff160217905550503373ffffffffffffffffffffffffffffffffffffffff1660007f49c30a7bc60a046e9da9892d5f2743ea0527d4327646cfc5562a1d1c46c654a3346040518082815260200191505060405180910390a38173ffffffffffffffffffffffffffffffffffffffff166108fc849081150290604051600060405180830381858888f19350505050151561071e57600080fd5b505050565b60008060149054906101000a900461ffff1661ffff16905090565b60006002600080815260200190815260200160002060030160009054906101000a900473ffffffffffffffffffffffffffffffffffffffff1673ffffffffffffffffffffffffffffffffffffffff163373ffffffffffffffffffffffffffffffffffffffff161415156107b057600080fd5b6002600080815260200190815260200160002060030160009054906101000a900473ffffffffffffffffffffffffffffffffffffffff168385846107f261125d565b808573ffffffffffffffffffffffffffffffffffffffff1673ffffffffffffffffffffffffffffffffffffffff168152602001806020018461ffff1661ffff1681526020018360ff168152602001828103825285818151815260200191508051906020019080838360005b8381101561087857808201518184015260208101905061085d565b50505050905090810190601f1680156108a55780820380516001836020036101000a031916815260200191505b5095505050505050604051809103906000f08015156108c357600080fd5b9050600380548060010182816108d9919061126d565b9160005260206000209001600083909190916101000a81548173ffffffffffffffffffffffffffffffffffffffff021916908373ffffffffffffffffffffffffffffffffffffffff1602179055505050505050565b610936611208565b6080604051908101604052803373ffffffffffffffffffffffffffffffffffffffff168152602001600073ffffffffffffffffffffffffffffffffffffffff1681526020014281526020013481525090508060016000610994610723565b815260200190815260200160002060008201518160000160006101000a81548173ffffffffffffffffffffffffffffffffffffffff021916908373ffffffffffffffffffffffffffffffffffffffff16021790555060208201518160010160006101000a81548173ffffffffffffffffffffffffffffffffffffffff021916908373ffffffffffffffffffffffffffffffffffffffff16021790555060408201518160020155606082015181600301559050506000601481819054906101000a900461ffff168092919060010191906101000a81548161ffff021916908361ffff160217905550503373ffffffffffffffffffffffffffffffffffffffff1660007f49c30a7bc60a046e9da9892d5f2743ea0527d4327646cfc5562a1d1c46c654a3346040518082815260200191505060405180910390a350565b600080600080600080600080600160008a815260200190815260200160002060000160009054906101000a900473ffffffffffffffffffffffffffffffffffffffff169350600160008a815260200190815260200160002060010160009054906101000a900473ffffffffffffffffffffffffffffffffffffffff169250600160008a8152602001908152602001600020600201549150600160008a8152602001908152602001600020600301549050838383839750975097509750505050509193509193565b610b9e611208565b6080604051908101604052808473ffffffffffffffffffffffffffffffffffffffff168152602001600073ffffffffffffffffffffffffffffffffffffffff1681526020014281526020018381525090508060016000610bfc610723565b815260200190815260200160002060008201518160000160006101000a81548173ffffffffffffffffffffffffffffffffffffffff021916908373ffffffffffffffffffffffffffffffffffffffff16021790555060208201518160010160006101000a81548173ffffffffffffffffffffffffffffffffffffffff021916908373ffffffffffffffffffffffffffffffffffffffff16021790555060408201518160020155606082015181600301559050506000601481819054906101000a900461ffff168092919060010191906101000a81548161ffff021916908361ffff16021790555050505050565b610cf1611299565b6003805480602002602001604051908101604052809291908181526020018280548015610d7357602002820191906000526020600020905b8160009054906101000a900473ffffffffffffffffffffffffffffffffffffffff1673ffffffffffffffffffffffffffffffffffffffff1681526020019060010190808311610d29575b5050505050905090565b610d856112ad565b610d8d6112ad565b610d956112ad565b60006002600080815260200190815260200160002060000160026000808152602001908152602001600020600101600260008081526020019081526020016000206002016002600080815260200190815260200160002060030160009054906101000a900473ffffffffffffffffffffffffffffffffffffffff16838054600181600116156101000203166002900480601f016020809104026020016040519081016040528092919081815260200182805460018160011615610100020316600290048015610ea55780601f10610e7a57610100808354040283529160200191610ea5565b820191906000526020600020905b815481529060010190602001808311610e8857829003601f168201915b50505050509350828054600181600116156101000203166002900480601f016020809104026020016040519081016040528092919081815260200182805460018160011615610100020316600290048015610f415780601f10610f1657610100808354040283529160200191610f41565b820191906000526020600020905b815481529060010190602001808311610f2457829003601f168201915b50505050509250818054600181600116156101000203166002900480601f016020809104026020016040519081016040528092919081815260200182805460018160011615610100020316600290048015610fdd5780601f10610fb257610100808354040283529160200191610fdd565b820191906000526020600020905b815481529060010190602001808311610fc057829003601f168201915b50505050509150935093509350935090919293565b60003073ffffffffffffffffffffffffffffffffffffffff1631905090565b611019611208565b8273ffffffffffffffffffffffffffffffffffffffff166108fc839081150290604051600060405180830381858888f19350505050151561105957600080fd5b6080604051908101604052803373ffffffffffffffffffffffffffffffffffffffff1681526020018473ffffffffffffffffffffffffffffffffffffffff16815260200142815260200183815250905080600160006110b6610723565b815260200190815260200160002060008201518160000160006101000a81548173ffffffffffffffffffffffffffffffffffffffff021916908373ffffffffffffffffffffffffffffffffffffffff16021790555060208201518160010160006101000a81548173ffffffffffffffffffffffffffffffffffffffff021916908373ffffffffffffffffffffffffffffffffffffffff16021790555060408201518160020155606082015181600301559050506000601481819054906101000a900461ffff168092919060010191906101000a81548161ffff021916908361ffff160217905550503373ffffffffffffffffffffffffffffffffffffffff168373ffffffffffffffffffffffffffffffffffffffff167f49c30a7bc60a046e9da9892d5f2743ea0527d4327646cfc5562a1d1c46c654a3346040518082815260200191505060405180910390a3505050565b608060405190810160405280600073ffffffffffffffffffffffffffffffffffffffff168152602001600073ffffffffffffffffffffffffffffffffffffffff16815260200160008152602001600081525090565b604051610514806112e783390190565b8154818355818115116112945781836000526020600020918201910161129391906112c1565b5b505050565b602060405190810160405280600081525090565b602060405190810160405280600081525090565b6112e391905b808211156112df5760008160009055506001016112c7565b5090565b9056006060604052341561000f57600080fd5b60405161051438038061051483398101604052808051906020019091908051820191906020018051906020019091908051906020019091905050836000806101000a81548173ffffffffffffffffffffffffffffffffffffffff021916908373ffffffffffffffffffffffffffffffffffffffff16021790555081600060146101000a81548161ffff021916908361ffff1602179055508060018190555082600290805190602001906100c39291906100cd565b5050505050610172565b828054600181600116156101000203166002900490600052602060002090601f016020900481019282601f1061010e57805160ff191683800117855561013c565b8280016001018555821561013c579182015b8281111561013b578251825591602001919060010190610120565b5b509050610149919061014d565b5090565b61016f91905b8082111561016b576000816000905550600101610153565b5090565b90565b610393806101816000396000f30060606040526000357c0100000000000000000000000000000000000000000000000000000000900463ffffffff1680631ff8eda814610053578063cb2abf51146100fe578063d93d10ae1461012c57600080fd5b341561005e57600080fd5b610066610136565b604051808561ffff1661ffff16815260200184815260200183815260200180602001828103825283818151815260200191508051906020019080838360005b838110156100c05780820151818401526020810190506100a5565b50505050905090810190601f1680156100ed5780820380516001836020036101000a031916815260200191505b509550505050505060405180910390f35b61012a600480803573ffffffffffffffffffffffffffffffffffffffff1690602001909190505061021b565b005b610134610275565b005b60008060006101436102d8565b600060149054906101000a900461ffff163073ffffffffffffffffffffffffffffffffffffffff16316001546002808054600181600116156101000203166002900480601f0160208091040260200160405190810160405280929190818152602001828054600181600116156101000203166002900480156102065780601f106101db57610100808354040283529160200191610206565b820191906000526020600020905b8154815290600101906020018083116101e957829003601f168201915b50505050509050935093509350935090919293565b8073ffffffffffffffffffffffffffffffffffffffff166108fc3073ffffffffffffffffffffffffffffffffffffffff16319081150290604051600060405180830381858888f19350505050151561027257600080fd5b50565b61027d6102ec565b6040805190810160405280428152602001348152509050600380548060010182816102a89190610306565b91600052602060002090600202016000839091909150600082015181600001556020820151816001015550505050565b602060405190810160405280600081525090565b604080519081016040528060008152602001600081525090565b815481835581811511610333576002028160020283600052602060002091820191016103329190610338565b5b505050565b61036491905b808211156103605760008082016000905560018201600090555060020161033e565b5090565b905600a165627a7a723058207f0ec1ea3520cbd2920b22b2eead3ea44c49c222ef6d98ec59c360bb2e783acf0029a165627a7a723058209a342efee94db9a134336e3d5a19bb1ffb82e3f12cf60917c6fc9bf76a751ad80029a165627a7a72305820591e4e80d7e2165afefa421db68f5dd71153fd78f6834f47236c2921361a7acb0029",
  "source": "/******************************************************************************\r\n* Smart Banking app smart contract.\r\n*\r\n* Created by: Marko Perajica\r\n* Date: 02.05.2020\r\n******************************************************************************/\r\n\r\npragma solidity 0.4.17;\r\n\r\ncontract FactorySBA\r\n{\r\n  address[] public accounts;\r\n  address public created;\r\n\r\n  event EmitContract(address indexed contractAddress);\r\n\r\n  function createAccount(address _user, string firstName, string lastName, string email) public {\r\n      address newAccount = new SBAContract(_user, firstName, lastName, email);\r\n\r\n      accounts.push(newAccount);\r\n\r\n      created = newAccount;\r\n  }\r\n\r\n  function getAccount() public view returns (address) {\r\n      return created;\r\n  }\r\n}\r\n\r\ncontract SBAContract\r\n{\r\n\r\n    struct User {\r\n        string _firstName;\r\n        string _lastName;\r\n        string _email;\r\n        address _address;\r\n    }\r\n\r\n    struct Transaction {\r\n        address _sender;\r\n        address _recepient;\r\n        uint256 _timestamp;\r\n        uint256 _amount;\r\n    }\r\n\r\n    address private _authority;\r\n    uint16 private transactionCount;\r\n    mapping(uint => Transaction) transactions;\r\n    mapping(uint => User) _user;\r\n    address[] waults;\r\n\r\n    event SendTransaction(address indexed recepient, address indexed sender, uint amount);\r\n\r\n    modifier restricted() {\r\n        require(msg.sender == _user[0]._address);\r\n        _;\r\n    }\r\n\r\n    function SBAContract(address user, string firstName, string lastName, string email) public {\r\n        _authority = msg.sender;\r\n\r\n        User memory newUser = User({\r\n            _firstName : firstName,\r\n            _lastName : lastName,\r\n            _email : email,\r\n            _address : user\r\n            });\r\n\r\n        _user[0] = newUser;\r\n    }\r\n\r\n    function getUser() public view returns (string, string, string, address) {\r\n        return (_user[0]._firstName, _user[0]._lastName, _user[0]._email, _user[0]._address);\r\n    }\r\n\r\n    function createWault(uint16 moneyToSave, string reason, uint8 timeline) public restricted {\r\n        address newWault = new Wault(_user[0]._address, reason, moneyToSave, timeline);\r\n\r\n        waults.push(newWault);\r\n    }\r\n\r\n    function getWaults() public view returns (address[]) {\r\n        return waults;\r\n    }\r\n\r\n    function sendMoney(address recepient, uint256 amount) public payable {\r\n        recepient.transfer(amount);\r\n\r\n        Transaction memory newTransaction = Transaction({\r\n            _sender : msg.sender,\r\n            _recepient : recepient,\r\n            _timestamp: block.timestamp,\r\n            _amount : amount\r\n            });\r\n\r\n        transactions[getTransactionCount()] = newTransaction;\r\n        transactionCount++;\r\n\r\n        //emit event SendTransaction\r\n        SendTransaction(recepient, msg.sender, msg.value);\r\n    }\r\n\r\n    function getTransactionCount() public view returns (uint256) {\r\n        return transactionCount;\r\n    }\r\n\r\n    function addMoneyToAccount() public payable {\r\n        Transaction memory newTransaction = Transaction({\r\n            _sender : msg.sender,\r\n            _recepient : 0,\r\n            _timestamp: block.timestamp,\r\n            _amount : msg.value\r\n            });\r\n\r\n        transactions[getTransactionCount()] = newTransaction;\r\n\r\n        transactionCount++;\r\n\r\n        SendTransaction(0, msg.sender, msg.value);\r\n    }\r\n\r\n    function addSenderToTransactions(address _address, uint256 amount) public {\r\n        Transaction memory newTransaction = Transaction({\r\n            _sender : _address,\r\n            _recepient : 0,\r\n            _timestamp: block.timestamp,\r\n            _amount : amount\r\n            });\r\n\r\n        transactions[getTransactionCount()] = newTransaction;\r\n\r\n        transactionCount++;\r\n    }\r\n\r\n    function getTransactions(uint index) public view returns (address, address, uint256, uint256) {\r\n        address sender = transactions[index]._sender;\r\n        address recepient = transactions[index]._recepient;\r\n        uint256 time = transactions[index]._timestamp;\r\n        uint256 amount = transactions[index]._amount;\r\n\r\n        return (sender, recepient, time, amount);\r\n    }\r\n\r\n    function getMoneyStatus() public view returns (uint256) {\r\n        return this.balance;\r\n    }\r\n\r\n    //Simulation of withdraw money (money is sent to authority instead withdrawn)\r\n    function withDrawMoney(uint256 _amount, address authority) public payable restricted {\r\n\r\n      Transaction memory newTransaction = Transaction({\r\n          _sender : msg.sender,\r\n          _recepient : 0,\r\n          _timestamp: block.timestamp,\r\n          _amount : _amount\r\n          });\r\n\r\n          transactions[getTransactionCount()] = newTransaction;\r\n\r\n          transactionCount++;\r\n\r\n          SendTransaction(0, msg.sender, msg.value);\r\n\r\n        authority.transfer(_amount);\r\n    }\r\n}\r\n\r\ncontract Wault\r\n{\r\n    struct Payment {\r\n        uint timestamp;\r\n        uint amount;\r\n    }\r\n\r\n    address owner;\r\n    uint16 _moneyGoal;\r\n    uint256 _timeline;\r\n    string _reason;\r\n    Payment[] payments;\r\n\r\n    modifier restricted() {\r\n        require(msg.sender == owner);\r\n        _;\r\n    }\r\n\r\n    function Wault(address _address, string reason, uint16 moneyToSave, uint256 timeline) public {\r\n        owner = _address;\r\n        _moneyGoal = moneyToSave;\r\n        _timeline = timeline;\r\n        _reason = reason;\r\n    }\r\n\r\n    function getWaultStatus() public view returns (uint16, uint256, uint256, string) {\r\n        return (_moneyGoal, this.balance, _timeline, _reason);\r\n    }\r\n\r\n    function sendMoneyToWault() public payable {\r\n        Payment memory newPayment = Payment({\r\n            timestamp : block.timestamp,\r\n            amount : msg.value\r\n            });\r\n\r\n        payments.push(newPayment);\r\n    }\r\n\r\n    function withDrawMoney(address authority) public payable {\r\n        authority.transfer(this.balance);\r\n    }\r\n}\r\n",
  "sourcePath": "E:/repos/smart-banking-app/src/ethereum/sba-truffle-suite/contracts/SBAContract.sol",
  "compiler": {
    "name": "solc",
    "version": "0.4.17+commit.bdeb9e52.Emscripten.clang"
  },
  "schemaVersion": "3.2.5",
  "updatedAt": "2020-10-22T23:10:32.766Z",
  "networkType": "ethereum",
  "devdoc": {
    "methods": {}
  },
  "userdoc": {
    "methods": {}
  }
}