{
  "contractName": "Wault",
  "abi": [
    {
      "inputs": [
        {
          "name": "_address",
          "type": "address"
        },
        {
          "name": "reason",
          "type": "string"
        },
        {
          "name": "moneyToSave",
          "type": "uint16"
        },
        {
          "name": "timeline",
          "type": "uint256"
        }
      ],
      "payable": false,
      "stateMutability": "nonpayable",
      "type": "constructor"
    },
    {
      "constant": true,
      "inputs": [],
      "name": "getWaultStatus",
      "outputs": [
        {
          "name": "",
          "type": "uint16"
        },
        {
          "name": "",
          "type": "uint256"
        },
        {
          "name": "",
          "type": "uint256"
        },
        {
          "name": "",
          "type": "string"
        }
      ],
      "payable": false,
      "stateMutability": "view",
      "type": "function"
    },
    {
      "constant": false,
      "inputs": [],
      "name": "sendMoneyToWault",
      "outputs": [],
      "payable": true,
      "stateMutability": "payable",
      "type": "function"
    },
    {
      "constant": false,
      "inputs": [
        {
          "name": "authority",
          "type": "address"
        }
      ],
      "name": "withDrawMoney",
      "outputs": [],
      "payable": true,
      "stateMutability": "payable",
      "type": "function"
    }
  ],
  "bytecode": "0x6060604052341561000f57600080fd5b60405161051438038061051483398101604052808051906020019091908051820191906020018051906020019091908051906020019091905050836000806101000a81548173ffffffffffffffffffffffffffffffffffffffff021916908373ffffffffffffffffffffffffffffffffffffffff16021790555081600060146101000a81548161ffff021916908361ffff1602179055508060018190555082600290805190602001906100c39291906100cd565b5050505050610172565b828054600181600116156101000203166002900490600052602060002090601f016020900481019282601f1061010e57805160ff191683800117855561013c565b8280016001018555821561013c579182015b8281111561013b578251825591602001919060010190610120565b5b509050610149919061014d565b5090565b61016f91905b8082111561016b576000816000905550600101610153565b5090565b90565b610393806101816000396000f30060606040526000357c0100000000000000000000000000000000000000000000000000000000900463ffffffff1680631ff8eda814610053578063cb2abf51146100fe578063d93d10ae1461012c57600080fd5b341561005e57600080fd5b610066610136565b604051808561ffff1661ffff16815260200184815260200183815260200180602001828103825283818151815260200191508051906020019080838360005b838110156100c05780820151818401526020810190506100a5565b50505050905090810190601f1680156100ed5780820380516001836020036101000a031916815260200191505b509550505050505060405180910390f35b61012a600480803573ffffffffffffffffffffffffffffffffffffffff1690602001909190505061021b565b005b610134610275565b005b60008060006101436102d8565b600060149054906101000a900461ffff163073ffffffffffffffffffffffffffffffffffffffff16316001546002808054600181600116156101000203166002900480601f0160208091040260200160405190810160405280929190818152602001828054600181600116156101000203166002900480156102065780601f106101db57610100808354040283529160200191610206565b820191906000526020600020905b8154815290600101906020018083116101e957829003601f168201915b50505050509050935093509350935090919293565b8073ffffffffffffffffffffffffffffffffffffffff166108fc3073ffffffffffffffffffffffffffffffffffffffff16319081150290604051600060405180830381858888f19350505050151561027257600080fd5b50565b61027d6102ec565b6040805190810160405280428152602001348152509050600380548060010182816102a89190610306565b91600052602060002090600202016000839091909150600082015181600001556020820151816001015550505050565b602060405190810160405280600081525090565b604080519081016040528060008152602001600081525090565b815481835581811511610333576002028160020283600052602060002091820191016103329190610338565b5b505050565b61036491905b808211156103605760008082016000905560018201600090555060020161033e565b5090565b905600a165627a7a7230582088d49c69179faa537b1278cc96cded5027dba514e8134a8073aab8325fcf9e1a0029",
  "source": "/******************************************************************************\n* Smart Banking app smart contract.\n*\n* Created by: Marko Perajica\n* Date: 02.05.2020\n******************************************************************************/\n\npragma solidity 0.4.17;\n\ncontract FactorySBA\n{\n  address[] public accounts;\n  address public created;\n\n  event EmitContract(address indexed contractAddress);\n\n  function createAccount(address _user, string firstName, string lastName, string email) public {\n      address newAccount = new SBAContract(_user, firstName, lastName, email);\n\n      accounts.push(newAccount);\n\n      created = newAccount;\n  }\n\n  function getAccount() public view returns (address) {\n      return created;\n  }\n}\n\ncontract SBAContract\n{\n\n    struct User {\n        string _firstName;\n        string _lastName;\n        string _email;\n        address _address;\n    }\n\n    struct Transaction {\n        address _sender;\n        address _recepient;\n        uint256 _timestamp;\n        uint256 _amount;\n    }\n\n    address private _authority;\n    uint16 private transactionCount;\n    mapping(uint => Transaction) transactions;\n    mapping(uint => User) _user;\n    address[] waults;\n\n    event SendTransaction(address indexed recepient, address indexed sender, uint amount);\n\n    modifier restricted() {\n        require(msg.sender == _user[0]._address);\n        _;\n    }\n\n    function SBAContract(address user, string firstName, string lastName, string email) public {\n        _authority = msg.sender;\n\n        User memory newUser = User({\n            _firstName : firstName,\n            _lastName : lastName,\n            _email : email,\n            _address : user\n            });\n\n        _user[0] = newUser;\n    }\n\n    function getUser() public view returns (string, string, string, address) {\n        return (_user[0]._firstName, _user[0]._lastName, _user[0]._email, _user[0]._address);\n    }\n\n    function createWault(uint16 moneyToSave, string reason, uint256 timeline) public restricted {\n        address newWault = new Wault(_user[0]._address, reason, moneyToSave, timeline);\n\n        waults.push(newWault);\n    }\n\n    function getWaults() public view returns (address[]) {\n        return waults;\n    }\n\n    function sendMoney(address recepient, uint256 amount) public payable {\n        recepient.transfer(amount);\n\n        Transaction memory newTransaction = Transaction({\n            _sender : msg.sender,\n            _recepient : recepient,\n            _timestamp: block.timestamp,\n            _amount : amount\n            });\n\n        transactions[getTransactionCount()] = newTransaction;\n        transactionCount++;\n\n        //emit event SendTransaction\n        SendTransaction(recepient, msg.sender, msg.value);\n    }\n\n    function getTransactionCount() public view returns (uint256) {\n        return transactionCount;\n    }\n\n    function addMoneyToAccount() public payable {\n        Transaction memory newTransaction = Transaction({\n            _sender : msg.sender,\n            _recepient : 0,\n            _timestamp: block.timestamp,\n            _amount : msg.value\n            });\n\n        transactions[getTransactionCount()] = newTransaction;\n\n        transactionCount++;\n\n        SendTransaction(0, msg.sender, msg.value);\n    }\n\n    function addSenderToTransactions(address _address, uint256 amount) public {\n        Transaction memory newTransaction = Transaction({\n            _sender : _address,\n            _recepient : 0,\n            _timestamp: block.timestamp,\n            _amount : amount\n            });\n\n        transactions[getTransactionCount()] = newTransaction;\n\n        transactionCount++;\n    }\n\n    function getTransactions(uint index) public view returns (address, address, uint256, uint256) {\n        address sender = transactions[index]._sender;\n        address recepient = transactions[index]._recepient;\n        uint256 time = transactions[index]._timestamp;\n        uint256 amount = transactions[index]._amount;\n\n        return (sender, recepient, time, amount);\n    }\n\n    function getMoneyStatus() public view returns (uint256) {\n        return this.balance;\n    }\n\n    //Simulation of withdraw money (money is sent to authority instead withdrawn)\n    function withDrawMoney(uint256 _amount, address authority) public payable restricted {\n\n      Transaction memory newTransaction = Transaction({\n          _sender : msg.sender,\n          _recepient : 0,\n          _timestamp: block.timestamp,\n          _amount : _amount\n          });\n\n          transactions[getTransactionCount()] = newTransaction;\n\n          transactionCount++;\n\n          SendTransaction(0, msg.sender, msg.value);\n\n        authority.transfer(_amount);\n    }\n}\n\ncontract Wault\n{\n    struct Payment {\n        uint timestamp;\n        uint amount;\n    }\n\n    address owner;\n    uint16 _moneyGoal;\n    uint256 _timeline;\n    string _reason;\n    Payment[] payments;\n\n    modifier restricted() {\n        require(msg.sender == owner);\n        _;\n    }\n\n    function Wault(address _address, string reason, uint16 moneyToSave, uint256 timeline) public {\n        owner = _address;\n        _moneyGoal = moneyToSave;\n        _timeline = timeline;\n        _reason = reason;\n    }\n\n    function getWaultStatus() public view returns (uint16, uint256, uint256, string) {\n        return (_moneyGoal, this.balance, _timeline, _reason);\n    }\n\n    function sendMoneyToWault() public payable {\n        Payment memory newPayment = Payment({\n            timestamp : block.timestamp,\n            amount : msg.value\n            });\n\n        payments.push(newPayment);\n    }\n\n    function withDrawMoney(address authority) public payable {\n        authority.transfer(this.balance);\n    }\n}\n",
  "sourcePath": "/Users/markoperajica/Documents/repos/smart-banking-app/ethereum/sba-truffle-suite/contracts/SBAContract.sol",
  "compiler": {
    "name": "solc",
    "version": "0.4.17+commit.bdeb9e52.Emscripten.clang"
  },
  "schemaVersion": "3.4.1",
  "updatedAt": "2021-08-07T20:49:57.339Z",
  "devdoc": {
    "methods": {}
  },
  "userdoc": {
    "methods": {}
  }
}