{
  "contractName": "SBAContract",
  "abi": [
    {
      "inputs": [
        {
          "name": "user",
          "type": "address"
        },
        {
          "name": "firstName",
          "type": "string"
        },
        {
          "name": "lastName",
          "type": "string"
        },
        {
          "name": "email",
          "type": "string"
        }
      ],
      "payable": false,
      "stateMutability": "nonpayable",
      "type": "constructor"
    },
    {
      "anonymous": false,
      "inputs": [
        {
          "indexed": true,
          "name": "recepient",
          "type": "address"
        },
        {
          "indexed": true,
          "name": "sender",
          "type": "address"
        },
        {
          "indexed": false,
          "name": "amount",
          "type": "uint256"
        }
      ],
      "name": "SendTransaction",
      "type": "event"
    },
    {
      "constant": true,
      "inputs": [],
      "name": "getUser",
      "outputs": [
        {
          "name": "",
          "type": "string"
        },
        {
          "name": "",
          "type": "string"
        },
        {
          "name": "",
          "type": "string"
        },
        {
          "name": "",
          "type": "address"
        }
      ],
      "payable": false,
      "stateMutability": "view",
      "type": "function"
    },
    {
      "constant": false,
      "inputs": [
        {
          "name": "moneyToSave",
          "type": "uint16"
        },
        {
          "name": "reason",
          "type": "string"
        },
        {
          "name": "timeline",
          "type": "uint8"
        }
      ],
      "name": "createWault",
      "outputs": [],
      "payable": false,
      "stateMutability": "nonpayable",
      "type": "function"
    },
    {
      "constant": true,
      "inputs": [],
      "name": "getWaults",
      "outputs": [
        {
          "name": "",
          "type": "address[]"
        }
      ],
      "payable": false,
      "stateMutability": "view",
      "type": "function"
    },
    {
      "constant": false,
      "inputs": [
        {
          "name": "recepient",
          "type": "address"
        },
        {
          "name": "amount",
          "type": "uint256"
        }
      ],
      "name": "sendMoney",
      "outputs": [],
      "payable": true,
      "stateMutability": "payable",
      "type": "function"
    },
    {
      "constant": true,
      "inputs": [],
      "name": "getTransactionCount",
      "outputs": [
        {
          "name": "",
          "type": "uint256"
        }
      ],
      "payable": false,
      "stateMutability": "view",
      "type": "function"
    },
    {
      "constant": false,
      "inputs": [],
      "name": "addMoneyToAccount",
      "outputs": [],
      "payable": true,
      "stateMutability": "payable",
      "type": "function"
    },
    {
      "constant": false,
      "inputs": [
        {
          "name": "_address",
          "type": "address"
        },
        {
          "name": "amount",
          "type": "uint256"
        }
      ],
      "name": "addSenderToTransactions",
      "outputs": [],
      "payable": false,
      "stateMutability": "nonpayable",
      "type": "function"
    },
    {
      "constant": true,
      "inputs": [
        {
          "name": "index",
          "type": "uint256"
        }
      ],
      "name": "getTransactions",
      "outputs": [
        {
          "name": "",
          "type": "address"
        },
        {
          "name": "",
          "type": "address"
        },
        {
          "name": "",
          "type": "uint256"
        },
        {
          "name": "",
          "type": "uint256"
        }
      ],
      "payable": false,
      "stateMutability": "view",
      "type": "function"
    },
    {
      "constant": true,
      "inputs": [],
      "name": "getMoneyStatus",
      "outputs": [
        {
          "name": "",
          "type": "uint256"
        }
      ],
      "payable": false,
      "stateMutability": "view",
      "type": "function"
    },
    {
      "constant": false,
      "inputs": [
        {
          "name": "_amount",
          "type": "uint256"
        },
        {
          "name": "authority",
          "type": "address"
        }
      ],
      "name": "withDrawMoney",
      "outputs": [],
      "payable": true,
      "stateMutability": "payable",
      "type": "function"
    }
  ],
  "bytecode": "0x606060405234156200001057600080fd5b60405162001c5138038062001c51833981016040528080519060200190919080518201919060200180518201919060200180518201919050506200005362000193565b336000806101000a81548173ffffffffffffffffffffffffffffffffffffffff021916908373ffffffffffffffffffffffffffffffffffffffff1602179055506080604051908101604052808581526020018481526020018381526020018673ffffffffffffffffffffffffffffffffffffffff16815250905080600260008081526020019081526020016000206000820151816000019080519060200190620000ff929190620001ea565b5060208201518160010190805190602001906200011e929190620001ea565b5060408201518160020190805190602001906200013d929190620001ea565b5060608201518160030160006101000a81548173ffffffffffffffffffffffffffffffffffffffff021916908373ffffffffffffffffffffffffffffffffffffffff1602179055509050505050505050620002ad565b608060405190810160405280620001a962000271565b8152602001620001b862000271565b8152602001620001c762000271565b8152602001600073ffffffffffffffffffffffffffffffffffffffff1681525090565b828054600181600116156101000203166002900490600052602060002090601f016020900481019282601f106200022d57805160ff19168380011785556200025e565b828001600101855582156200025e579182015b828111156200025d57825182559160200191906001019062000240565b5b5090506200026d919062000285565b5090565b602060405190810160405280600081525090565b620002aa91905b80821115620002a65760008160009055506001016200028c565b5090565b90565b61199480620002bd6000396000f300606060405236156100a2576000357c0100000000000000000000000000000000000000000000000000000000900463ffffffff1680632b33d71b146100a75780632e7700f0146100de57806339c70dd6146101075780634edc2b111461017d5780635742177c1461018757806365209e3d1461022b5780637bae08ba1461026d578063832880e7146102d7578063e78a27ca14610470578063ee4ae2c914610499575b600080fd5b6100dc600480803590602001909190803573ffffffffffffffffffffffffffffffffffffffff169060200190919050506104d0565b005b34156100e957600080fd5b6100f1610723565b6040518082815260200191505060405180910390f35b341561011257600080fd5b61017b600480803561ffff1690602001909190803590602001908201803590602001908080601f0160208091040260200160405190810160405280939291908181526020018383808284378201915050505050509190803560ff1690602001909190505061073e565b005b610185610931565b005b341561019257600080fd5b6101a86004808035906020019091905050610ad2565b604051808573ffffffffffffffffffffffffffffffffffffffff1673ffffffffffffffffffffffffffffffffffffffff1681526020018473ffffffffffffffffffffffffffffffffffffffff1673ffffffffffffffffffffffffffffffffffffffff16815260200183815260200182815260200194505050505060405180910390f35b341561023657600080fd5b61026b600480803573ffffffffffffffffffffffffffffffffffffffff16906020019091908035906020019091905050610b99565b005b341561027857600080fd5b610280610cec565b6040518080602001828103825283818151815260200191508051906020019060200280838360005b838110156102c35780820151818401526020810190506102a8565b505050509050019250505060405180910390f35b34156102e257600080fd5b6102ea610d80565b604051808060200180602001806020018573ffffffffffffffffffffffffffffffffffffffff1673ffffffffffffffffffffffffffffffffffffffff168152602001848103845288818151815260200191508051906020019080838360005b83811015610364578082015181840152602081019050610349565b50505050905090810190601f1680156103915780820380516001836020036101000a031916815260200191505b50848103835287818151815260200191508051906020019080838360005b838110156103ca5780820151818401526020810190506103af565b50505050905090810190601f1680156103f75780820380516001836020036101000a031916815260200191505b50848103825286818151815260200191508051906020019080838360005b83811015610430578082015181840152602081019050610415565b50505050905090810190601f16801561045d5780820380516001836020036101000a031916815260200191505b5097505050505050505060405180910390f35b341561047b57600080fd5b610483610ff5565b6040518082815260200191505060405180910390f35b6104ce600480803573ffffffffffffffffffffffffffffffffffffffff16906020019091908035906020019091905050611014565b005b6104d861120b565b6002600080815260200190815260200160002060030160009054906101000a900473ffffffffffffffffffffffffffffffffffffffff1673ffffffffffffffffffffffffffffffffffffffff163373ffffffffffffffffffffffffffffffffffffffff1614151561054857600080fd5b6080604051908101604052803373ffffffffffffffffffffffffffffffffffffffff168152602001600073ffffffffffffffffffffffffffffffffffffffff16815260200142815260200184815250905080600160006105a6610723565b815260200190815260200160002060008201518160000160006101000a81548173ffffffffffffffffffffffffffffffffffffffff021916908373ffffffffffffffffffffffffffffffffffffffff16021790555060208201518160010160006101000a81548173ffffffffffffffffffffffffffffffffffffffff021916908373ffffffffffffffffffffffffffffffffffffffff16021790555060408201518160020155606082015181600301559050506000601481819054906101000a900461ffff168092919060010191906101000a81548161ffff021916908361ffff160217905550503373ffffffffffffffffffffffffffffffffffffffff1660007f49c30a7bc60a046e9da9892d5f2743ea0527d4327646cfc5562a1d1c46c654a3346040518082815260200191505060405180910390a38173ffffffffffffffffffffffffffffffffffffffff166108fc849081150290604051600060405180830381858888f19350505050151561071e57600080fd5b505050565b60008060149054906101000a900461ffff1661ffff16905090565b60006002600080815260200190815260200160002060030160009054906101000a900473ffffffffffffffffffffffffffffffffffffffff1673ffffffffffffffffffffffffffffffffffffffff163373ffffffffffffffffffffffffffffffffffffffff161415156107b057600080fd5b6002600080815260200190815260200160002060030160009054906101000a900473ffffffffffffffffffffffffffffffffffffffff168385846107f2611260565b808573ffffffffffffffffffffffffffffffffffffffff1673ffffffffffffffffffffffffffffffffffffffff168152602001806020018461ffff1661ffff1681526020018360ff1660ff168152602001828103825285818151815260200191508051906020019080838360005b8381101561087b578082015181840152602081019050610860565b50505050905090810190601f1680156108a85780820380516001836020036101000a031916815260200191505b5095505050505050604051809103906000f08015156108c657600080fd5b9050600380548060010182816108dc9190611270565b9160005260206000209001600083909190916101000a81548173ffffffffffffffffffffffffffffffffffffffff021916908373ffffffffffffffffffffffffffffffffffffffff1602179055505050505050565b61093961120b565b6080604051908101604052803373ffffffffffffffffffffffffffffffffffffffff168152602001600073ffffffffffffffffffffffffffffffffffffffff1681526020014281526020013481525090508060016000610997610723565b815260200190815260200160002060008201518160000160006101000a81548173ffffffffffffffffffffffffffffffffffffffff021916908373ffffffffffffffffffffffffffffffffffffffff16021790555060208201518160010160006101000a81548173ffffffffffffffffffffffffffffffffffffffff021916908373ffffffffffffffffffffffffffffffffffffffff16021790555060408201518160020155606082015181600301559050506000601481819054906101000a900461ffff168092919060010191906101000a81548161ffff021916908361ffff160217905550503373ffffffffffffffffffffffffffffffffffffffff1660007f49c30a7bc60a046e9da9892d5f2743ea0527d4327646cfc5562a1d1c46c654a3346040518082815260200191505060405180910390a350565b600080600080600080600080600160008a815260200190815260200160002060000160009054906101000a900473ffffffffffffffffffffffffffffffffffffffff169350600160008a815260200190815260200160002060010160009054906101000a900473ffffffffffffffffffffffffffffffffffffffff169250600160008a8152602001908152602001600020600201549150600160008a8152602001908152602001600020600301549050838383839750975097509750505050509193509193565b610ba161120b565b6080604051908101604052808473ffffffffffffffffffffffffffffffffffffffff168152602001600073ffffffffffffffffffffffffffffffffffffffff1681526020014281526020018381525090508060016000610bff610723565b815260200190815260200160002060008201518160000160006101000a81548173ffffffffffffffffffffffffffffffffffffffff021916908373ffffffffffffffffffffffffffffffffffffffff16021790555060208201518160010160006101000a81548173ffffffffffffffffffffffffffffffffffffffff021916908373ffffffffffffffffffffffffffffffffffffffff16021790555060408201518160020155606082015181600301559050506000601481819054906101000a900461ffff168092919060010191906101000a81548161ffff021916908361ffff16021790555050505050565b610cf461129c565b6003805480602002602001604051908101604052809291908181526020018280548015610d7657602002820191906000526020600020905b8160009054906101000a900473ffffffffffffffffffffffffffffffffffffffff1673ffffffffffffffffffffffffffffffffffffffff1681526020019060010190808311610d2c575b5050505050905090565b610d886112b0565b610d906112b0565b610d986112b0565b60006002600080815260200190815260200160002060000160026000808152602001908152602001600020600101600260008081526020019081526020016000206002016002600080815260200190815260200160002060030160009054906101000a900473ffffffffffffffffffffffffffffffffffffffff16838054600181600116156101000203166002900480601f016020809104026020016040519081016040528092919081815260200182805460018160011615610100020316600290048015610ea85780601f10610e7d57610100808354040283529160200191610ea8565b820191906000526020600020905b815481529060010190602001808311610e8b57829003601f168201915b50505050509350828054600181600116156101000203166002900480601f016020809104026020016040519081016040528092919081815260200182805460018160011615610100020316600290048015610f445780601f10610f1957610100808354040283529160200191610f44565b820191906000526020600020905b815481529060010190602001808311610f2757829003601f168201915b50505050509250818054600181600116156101000203166002900480601f016020809104026020016040519081016040528092919081815260200182805460018160011615610100020316600290048015610fe05780601f10610fb557610100808354040283529160200191610fe0565b820191906000526020600020905b815481529060010190602001808311610fc357829003601f168201915b50505050509150935093509350935090919293565b60003073ffffffffffffffffffffffffffffffffffffffff1631905090565b61101c61120b565b8273ffffffffffffffffffffffffffffffffffffffff166108fc839081150290604051600060405180830381858888f19350505050151561105c57600080fd5b6080604051908101604052803373ffffffffffffffffffffffffffffffffffffffff1681526020018473ffffffffffffffffffffffffffffffffffffffff16815260200142815260200183815250905080600160006110b9610723565b815260200190815260200160002060008201518160000160006101000a81548173ffffffffffffffffffffffffffffffffffffffff021916908373ffffffffffffffffffffffffffffffffffffffff16021790555060208201518160010160006101000a81548173ffffffffffffffffffffffffffffffffffffffff021916908373ffffffffffffffffffffffffffffffffffffffff16021790555060408201518160020155606082015181600301559050506000601481819054906101000a900461ffff168092919060010191906101000a81548161ffff021916908361ffff160217905550503373ffffffffffffffffffffffffffffffffffffffff168373ffffffffffffffffffffffffffffffffffffffff167f49c30a7bc60a046e9da9892d5f2743ea0527d4327646cfc5562a1d1c46c654a3346040518082815260200191505060405180910390a3505050565b608060405190810160405280600073ffffffffffffffffffffffffffffffffffffffff168152602001600073ffffffffffffffffffffffffffffffffffffffff16815260200160008152602001600081525090565b60405161067f806112ea83390190565b8154818355818115116112975781836000526020600020918201910161129691906112c4565b5b505050565b602060405190810160405280600081525090565b602060405190810160405280600081525090565b6112e691905b808211156112e25760008160009055506001016112ca565b5090565b9056006060604052341561000f57600080fd5b60405161067f38038061067f83398101604052808051906020019091908051820191906020018051906020019091908051906020019091905050836000806101000a81548173ffffffffffffffffffffffffffffffffffffffff021916908373ffffffffffffffffffffffffffffffffffffffff16021790555081600060146101000a81548161ffff021916908361ffff16021790555080600060166101000a81548160ff021916908360ff16021790555082600190805190602001906100d79291906100e1565b5050505050610186565b828054600181600116156101000203166002900490600052602060002090601f016020900481019282601f1061012257805160ff1916838001178555610150565b82800160010185558215610150579182015b8281111561014f578251825591602001919060010190610134565b5b50905061015d9190610161565b5090565b61018391905b8082111561017f576000816000905550600101610167565b5090565b90565b6104ea806101956000396000f30060606040526000357c0100000000000000000000000000000000000000000000000000000000900463ffffffff1680631ff8eda814610053578063cb2abf511461012a578063d93d10ae1461015857600080fd5b341561005e57600080fd5b610066610162565b604051808573ffffffffffffffffffffffffffffffffffffffff1673ffffffffffffffffffffffffffffffffffffffff1681526020018461ffff1661ffff16815260200183815260200180602001828103825283818151815260200191508051906020019080838360005b838110156100ec5780820151818401526020810190506100d1565b50505050905090810190601f1680156101195780820380516001836020036101000a031916815260200191505b509550505050505060405180910390f35b610156600480803573ffffffffffffffffffffffffffffffffffffffff16906020019091905050610266565b005b610160610371565b005b600080600061016f61042f565b6000809054906101000a900473ffffffffffffffffffffffffffffffffffffffff16600060149054906101000a900461ffff163073ffffffffffffffffffffffffffffffffffffffff16316001808054600181600116156101000203166002900480601f0160208091040260200160405190810160405280929190818152602001828054600181600116156101000203166002900480156102515780601f1061022657610100808354040283529160200191610251565b820191906000526020600020905b81548152906001019060200180831161023457829003601f168201915b50505050509050935093509350935090919293565b6000809054906101000a900473ffffffffffffffffffffffffffffffffffffffff1673ffffffffffffffffffffffffffffffffffffffff163373ffffffffffffffffffffffffffffffffffffffff161415156102c157600080fd5b60008060169054906101000a900460ff1660ff1614151561031757600060149054906101000a900461ffff1661ffff163073ffffffffffffffffffffffffffffffffffffffff16311015151561031657600080fd5b5b8073ffffffffffffffffffffffffffffffffffffffff166108fc3073ffffffffffffffffffffffffffffffffffffffff16319081150290604051600060405180830381858888f19350505050151561036e57600080fd5b50565b610379610443565b6000809054906101000a900473ffffffffffffffffffffffffffffffffffffffff1673ffffffffffffffffffffffffffffffffffffffff163373ffffffffffffffffffffffffffffffffffffffff161415156103d457600080fd5b6040805190810160405280428152602001348152509050600280548060010182816103ff919061045d565b91600052602060002090600202016000839091909150600082015181600001556020820151816001015550505050565b602060405190810160405280600081525090565b604080519081016040528060008152602001600081525090565b81548183558181151161048a57600202816002028360005260206000209182019101610489919061048f565b5b505050565b6104bb91905b808211156104b757600080820160009055600182016000905550600201610495565b5090565b905600a165627a7a7230582001c0eb3960dbcc6b1ac77697e9b54fa4b2de0847cabfea73c4d24b6a573396e90029a165627a7a7230582099bbf8e9939441d087f95e1a48491ab702f2765fcfea65e5c20771f5458dbf410029",
  "source": "/******************************************************************************\r\n* Smart Banking app smart contract.\r\n*\r\n* Created by: Marko Perajica\r\n* Date: 02.05.2020\r\n******************************************************************************/\r\n\r\npragma solidity 0.4.17;\r\n\r\ncontract FactorySBA\r\n{\r\n  address[] public accounts;\r\n  address public created;\r\n\r\n  event EmitContract(address indexed contractAddress);\r\n\r\n  function createAccount(address _user, string firstName, string lastName, string email) public {\r\n      address newAccount = new SBAContract(_user, firstName, lastName, email);\r\n\r\n      accounts.push(newAccount);\r\n\r\n      created = newAccount;\r\n  }\r\n\r\n  function getAccount() public view returns (address) {\r\n      return created;\r\n  }\r\n}\r\n\r\ncontract SBAContract\r\n{\r\n\r\n    struct User {\r\n        string _firstName;\r\n        string _lastName;\r\n        string _email;\r\n        address _address;\r\n    }\r\n\r\n    struct Transaction {\r\n        address _sender;\r\n        address _recepient;\r\n        uint256 _timestamp;\r\n        uint256 _amount;\r\n    }\r\n\r\n    address private _authority;\r\n    uint16 private transactionCount;\r\n    mapping(uint => Transaction) transactions;\r\n    mapping(uint => User) _user;\r\n    address[] waults;\r\n\r\n    event SendTransaction(address indexed recepient, address indexed sender, uint amount);\r\n\r\n    modifier restricted() {\r\n        require(msg.sender == _user[0]._address);\r\n        _;\r\n    }\r\n\r\n    function SBAContract(address user, string firstName, string lastName, string email) public {\r\n        _authority = msg.sender;\r\n\r\n        User memory newUser = User({\r\n            _firstName : firstName,\r\n            _lastName : lastName,\r\n            _email : email,\r\n            _address : user\r\n            });\r\n\r\n        _user[0] = newUser;\r\n    }\r\n\r\n    function getUser() public view returns (string, string, string, address) {\r\n        return (_user[0]._firstName, _user[0]._lastName, _user[0]._email, _user[0]._address);\r\n    }\r\n\r\n    function createWault(uint16 moneyToSave, string reason, uint8 timeline) public restricted {\r\n        address newWault = new Wault(_user[0]._address, reason, moneyToSave, timeline);\r\n\r\n        waults.push(newWault);\r\n    }\r\n\r\n    function getWaults() public view returns (address[]) {\r\n        return waults;\r\n    }\r\n\r\n    function sendMoney(address recepient, uint256 amount) public payable {\r\n        recepient.transfer(amount);\r\n\r\n        Transaction memory newTransaction = Transaction({\r\n            _sender : msg.sender,\r\n            _recepient : recepient,\r\n            _timestamp: now,\r\n            _amount : amount\r\n            });\r\n\r\n        transactions[getTransactionCount()] = newTransaction;\r\n        transactionCount++;\r\n\r\n        //emit event SendTransaction\r\n        SendTransaction(recepient, msg.sender, msg.value);\r\n    }\r\n\r\n    function getTransactionCount() public view returns (uint256) {\r\n        return transactionCount;\r\n    }\r\n\r\n    function addMoneyToAccount() public payable {\r\n        Transaction memory newTransaction = Transaction({\r\n            _sender : msg.sender,\r\n            _recepient : 0,\r\n            _timestamp: now,\r\n            _amount : msg.value\r\n            });\r\n\r\n        transactions[getTransactionCount()] = newTransaction;\r\n\r\n        transactionCount++;\r\n\r\n        SendTransaction(0, msg.sender, msg.value);\r\n    }\r\n\r\n    function addSenderToTransactions(address _address, uint256 amount) public {\r\n        Transaction memory newTransaction = Transaction({\r\n            _sender : _address,\r\n            _recepient : 0,\r\n            _timestamp: now,\r\n            _amount : amount\r\n            });\r\n\r\n        transactions[getTransactionCount()] = newTransaction;\r\n\r\n        transactionCount++;\r\n    }\r\n\r\n    function getTransactions(uint index) public view returns (address, address, uint256, uint256) {\r\n        address sender = transactions[index]._sender;\r\n        address recepient = transactions[index]._recepient;\r\n        uint256 time = transactions[index]._timestamp;\r\n        uint256 amount = transactions[index]._amount;\r\n\r\n        return (sender, recepient, time, amount);\r\n    }\r\n\r\n    function getMoneyStatus() public view returns (uint256) {\r\n        return this.balance;\r\n    }\r\n\r\n    //Simulation of withdraw money (money is sent to authority instead withdrawn)\r\n    function withDrawMoney(uint256 _amount, address authority) public payable restricted {\r\n\r\n      Transaction memory newTransaction = Transaction({\r\n          _sender : msg.sender,\r\n          _recepient : 0,\r\n          _timestamp: now,\r\n          _amount : _amount\r\n          });\r\n\r\n          transactions[getTransactionCount()] = newTransaction;\r\n\r\n          transactionCount++;\r\n\r\n          SendTransaction(0, msg.sender, msg.value);\r\n\r\n        authority.transfer(_amount);\r\n    }\r\n}\r\n\r\ncontract Wault\r\n{\r\n    struct Payment {\r\n        uint timestamp;\r\n        uint amount;\r\n    }\r\n\r\n    address owner;\r\n    uint16 _moneyGoal;\r\n    uint8 _timeline;\r\n    string _reason;\r\n    Payment[] payments;\r\n\r\n    modifier restricted() {\r\n        require(msg.sender == owner);\r\n        _;\r\n    }\r\n\r\n    function Wault(address _address, string reason, uint16 moneyToSave, uint8 timeline) public {\r\n        owner = _address;\r\n        _moneyGoal = moneyToSave;\r\n        _timeline = timeline;\r\n        _reason = reason;\r\n    }\r\n\r\n    function getWaultStatus() public view returns (address, uint16, uint256, string) {\r\n        return (owner, _moneyGoal, this.balance, _reason);\r\n    }\r\n\r\n    function sendMoneyToWault() public payable restricted {\r\n        Payment memory newPayment = Payment({\r\n            timestamp : block.timestamp,\r\n            amount : msg.value\r\n            });\r\n\r\n        payments.push(newPayment);\r\n    }\r\n\r\n    function withDrawMoney(address authority) public payable restricted {\r\n        if (_timeline != 0) {\r\n            require(this.balance >= _moneyGoal);\r\n        }\r\n        authority.transfer(this.balance);\r\n    }\r\n}\r\n",
  "sourcePath": "E:/repos/smart-banking-app/src/ethereum/sba-truffle-suite/contracts/SBAContract.sol",
  "compiler": {
    "name": "solc",
    "version": "0.4.17+commit.bdeb9e52.Emscripten.clang"
  },
  "schemaVersion": "3.2.5",
  "updatedAt": "2020-10-19T19:04:19.039Z",
  "devdoc": {
    "methods": {}
  },
  "userdoc": {
    "methods": {}
  }
}