{
  "contractName": "Wault",
  "abi": [
    {
      "inputs": [
        {
          "name": "_address",
          "type": "address"
        },
        {
          "name": "reason",
          "type": "string"
        },
        {
          "name": "moneyToSave",
          "type": "uint16"
        },
        {
          "name": "timeline",
          "type": "uint8"
        }
      ],
      "payable": false,
      "stateMutability": "nonpayable",
      "type": "constructor"
    },
    {
      "constant": true,
      "inputs": [],
      "name": "getWaultStatus",
      "outputs": [
        {
          "name": "",
          "type": "address"
        },
        {
          "name": "",
          "type": "uint16"
        },
        {
          "name": "",
          "type": "uint256"
        },
        {
          "name": "",
          "type": "string"
        }
      ],
      "payable": false,
      "stateMutability": "view",
      "type": "function"
    },
    {
      "constant": false,
      "inputs": [],
      "name": "sendMoneyToWault",
      "outputs": [],
      "payable": true,
      "stateMutability": "payable",
      "type": "function"
    },
    {
      "constant": false,
      "inputs": [
        {
          "name": "authority",
          "type": "address"
        }
      ],
      "name": "withDrawMoney",
      "outputs": [],
      "payable": true,
      "stateMutability": "payable",
      "type": "function"
    }
  ],
  "bytecode": "0x6060604052341561000f57600080fd5b60405161067f38038061067f83398101604052808051906020019091908051820191906020018051906020019091908051906020019091905050836000806101000a81548173ffffffffffffffffffffffffffffffffffffffff021916908373ffffffffffffffffffffffffffffffffffffffff16021790555081600060146101000a81548161ffff021916908361ffff16021790555080600060166101000a81548160ff021916908360ff16021790555082600190805190602001906100d79291906100e1565b5050505050610186565b828054600181600116156101000203166002900490600052602060002090601f016020900481019282601f1061012257805160ff1916838001178555610150565b82800160010185558215610150579182015b8281111561014f578251825591602001919060010190610134565b5b50905061015d9190610161565b5090565b61018391905b8082111561017f576000816000905550600101610167565b5090565b90565b6104ea806101956000396000f30060606040526000357c0100000000000000000000000000000000000000000000000000000000900463ffffffff1680631ff8eda814610053578063cb2abf511461012a578063d93d10ae1461015857600080fd5b341561005e57600080fd5b610066610162565b604051808573ffffffffffffffffffffffffffffffffffffffff1673ffffffffffffffffffffffffffffffffffffffff1681526020018461ffff1661ffff16815260200183815260200180602001828103825283818151815260200191508051906020019080838360005b838110156100ec5780820151818401526020810190506100d1565b50505050905090810190601f1680156101195780820380516001836020036101000a031916815260200191505b509550505050505060405180910390f35b610156600480803573ffffffffffffffffffffffffffffffffffffffff16906020019091905050610266565b005b610160610371565b005b600080600061016f61042f565b6000809054906101000a900473ffffffffffffffffffffffffffffffffffffffff16600060149054906101000a900461ffff163073ffffffffffffffffffffffffffffffffffffffff16316001808054600181600116156101000203166002900480601f0160208091040260200160405190810160405280929190818152602001828054600181600116156101000203166002900480156102515780601f1061022657610100808354040283529160200191610251565b820191906000526020600020905b81548152906001019060200180831161023457829003601f168201915b50505050509050935093509350935090919293565b6000809054906101000a900473ffffffffffffffffffffffffffffffffffffffff1673ffffffffffffffffffffffffffffffffffffffff163373ffffffffffffffffffffffffffffffffffffffff161415156102c157600080fd5b60008060169054906101000a900460ff1660ff1614151561031757600060149054906101000a900461ffff1661ffff163073ffffffffffffffffffffffffffffffffffffffff16311015151561031657600080fd5b5b8073ffffffffffffffffffffffffffffffffffffffff166108fc3073ffffffffffffffffffffffffffffffffffffffff16319081150290604051600060405180830381858888f19350505050151561036e57600080fd5b50565b610379610443565b6000809054906101000a900473ffffffffffffffffffffffffffffffffffffffff1673ffffffffffffffffffffffffffffffffffffffff163373ffffffffffffffffffffffffffffffffffffffff161415156103d457600080fd5b6040805190810160405280428152602001348152509050600280548060010182816103ff919061045d565b91600052602060002090600202016000839091909150600082015181600001556020820151816001015550505050565b602060405190810160405280600081525090565b604080519081016040528060008152602001600081525090565b81548183558181151161048a57600202816002028360005260206000209182019101610489919061048f565b5b505050565b6104bb91905b808211156104b757600080820160009055600182016000905550600201610495565b5090565b905600a165627a7a723058209e8cd807c2ef8cece336ba99bb9c6e2836ccbce1224ea24de18cd8154d56a7ed0029",
  "source": "/******************************************************************************\r\n* Smart Banking app smart contract.\r\n*\r\n* Created by: Marko Perajica\r\n* Date: 02.05.2020\r\n******************************************************************************/\r\n\r\npragma solidity 0.4.17;\r\n\r\ncontract FactorySBA\r\n{\r\n  address[] public accounts;\r\n  address public created;\r\n\r\n  event EmitContract(address indexed contractAddress);\r\n\r\n  function createAccount(address _user, string firstName, string lastName, string email) public {\r\n      address newAccount = new SBAContract(_user, firstName, lastName, email);\r\n\r\n      accounts.push(newAccount);\r\n\r\n      created = newAccount;\r\n  }\r\n\r\n  function getAccount() public view returns (address) {\r\n      return created;\r\n  }\r\n}\r\n\r\ncontract SBAContract\r\n{\r\n\r\n    struct User {\r\n        string _firstName;\r\n        string _lastName;\r\n        string _email;\r\n        address _address;\r\n    }\r\n\r\n    struct Transaction {\r\n        address _sender;\r\n        address _recepient;\r\n        uint256 amount;\r\n    }\r\n\r\n    address private _authority;\r\n    uint16 private transactionCount;\r\n    mapping(uint => Transaction) transactions;\r\n    mapping(uint => User) _user;\r\n    address[] waults;\r\n\r\n    event SendTransaction(address indexed recepient, address indexed sender, uint amount);\r\n\r\n    modifier restricted() {\r\n        require(msg.sender == _user[0]._address);\r\n        _;\r\n    }\r\n\r\n    function SBAContract(address user, string firstName, string lastName, string email) public {\r\n        _authority = msg.sender;\r\n\r\n        User memory newUser = User({\r\n            _firstName : firstName,\r\n            _lastName : lastName,\r\n            _email : email,\r\n            _address : user\r\n            });\r\n\r\n        _user[0] = newUser;\r\n    }\r\n\r\n    function getUser() public view returns (string, string, string, address) {\r\n        return (_user[0]._firstName, _user[0]._lastName, _user[0]._email, _user[0]._address);\r\n    }\r\n\r\n    function createWault(uint16 moneyToSave, string reason, uint8 timeline) public restricted {\r\n        address newWault = new Wault(_user[0]._address, reason, moneyToSave, timeline);\r\n\r\n        waults.push(newWault);\r\n    }\r\n\r\n    function getWaults() public view returns (address[]) {\r\n        return waults;\r\n    }\r\n\r\n    function sendMoney(address recepient) public payable {\r\n        recepient.transfer(msg.value);\r\n\r\n        Transaction memory newTransaction = Transaction({\r\n            _sender : msg.sender,\r\n            _recepient : recepient,\r\n            amount : msg.value\r\n            });\r\n\r\n        transactions[getTransactionCount()] = newTransaction;\r\n        transactionCount++;\r\n\r\n        //emit event SendTransaction\r\n        SendTransaction(recepient, msg.sender, msg.value);\r\n    }\r\n\r\n    function getTransactionCount() public view returns (uint256) {\r\n        return transactionCount;\r\n    }\r\n\r\n    function addMoneyToAccount() public payable {\r\n        Transaction memory newTransaction = Transaction({\r\n            _sender : msg.sender,\r\n            _recepient : 0,\r\n            amount : msg.value\r\n            });\r\n\r\n        transactions[getTransactionCount()] = newTransaction;\r\n\r\n        transactionCount++;\r\n\r\n        SendTransaction(0, msg.sender, msg.value);\r\n    }\r\n\r\n    function addSenderToTransactions(address _address, uint256 amount) public {\r\n        Transaction memory newTransaction = Transaction({\r\n            _sender : _address,\r\n            _recepient : 0,\r\n            amount : amount\r\n            });\r\n\r\n        transactions[getTransactionCount()] = newTransaction;\r\n\r\n        transactionCount++;\r\n    }\r\n\r\n    function getTransactions(uint index) public view returns (address, address, uint256) {\r\n        address sender = transactions[index]._sender;\r\n        address recepient = transactions[index]._recepient;\r\n        uint256 amount = transactions[index].amount;\r\n\r\n        return (sender, recepient, amount);\r\n    }\r\n\r\n    function getMoneyStatus() public view returns (uint256) {\r\n        return this.balance;\r\n    }\r\n\r\n    //Simulation of withdraw money (money is sent to authority instead withdrawn)\r\n    function withDrawMoney(uint256 _amount, address authority) public payable restricted {\r\n        authority.transfer(this.balance - _amount);\r\n    }\r\n}\r\n\r\ncontract Wault\r\n{\r\n    struct Payment {\r\n        uint timestamp;\r\n        uint amount;\r\n    }\r\n\r\n    address owner;\r\n    uint16 _moneyGoal;\r\n    uint8 _timeline;\r\n    string _reason;\r\n    Payment[] payments;\r\n\r\n    modifier restricted() {\r\n        require(msg.sender == owner);\r\n        _;\r\n    }\r\n\r\n    function Wault(address _address, string reason, uint16 moneyToSave, uint8 timeline) public {\r\n        owner = _address;\r\n        _moneyGoal = moneyToSave;\r\n        _timeline = timeline;\r\n        _reason = reason;\r\n    }\r\n\r\n    function getWaultStatus() public view returns (address, uint16, uint256, string) {\r\n        return (owner, _moneyGoal, this.balance, _reason);\r\n    }\r\n\r\n    function sendMoneyToWault() public payable restricted {\r\n        Payment memory newPayment = Payment({\r\n            timestamp : block.timestamp,\r\n            amount : msg.value\r\n            });\r\n\r\n        payments.push(newPayment);\r\n    }\r\n\r\n    function withDrawMoney(address authority) public payable restricted {\r\n        if (_timeline != 0) {\r\n            require(this.balance >= _moneyGoal);\r\n        }\r\n        authority.transfer(this.balance);\r\n    }\r\n}\r\n",
  "sourcePath": "D:\\dev\\react-apps\\smart-banking-app\\src\\ethereum\\sba-truffle-suite\\contracts\\SBAContract.sol",
  "compiler": {
    "name": "solc",
    "version": "0.4.17+commit.bdeb9e52.Emscripten.clang"
  },
  "schemaVersion": "3.2.0",
  "updatedAt": "2020-06-19T10:32:09.514Z",
  "devdoc": {
    "methods": {}
  },
  "userdoc": {
    "methods": {}
  }
}